S010000057695468696E67792E73726563E1
S113000065C0000080C000007EC000007CC000000D
S11300107AC0000078C0000076C0000074C0000000
S113002072C000004CC100006EC000006CC0000033
S11300306AC0000068C0000066C0000064C0000020
S113004062C0000060C000005EC000005CC0000030
S11300505AC0000058C0000056C0000054C0000040
S113006052C0000050C000004EC000004CC0000050
S11300704AC00000E8C0000046C0000044C00000C0
S113008042C0000040C000003EC000003CC0000070
S11300903AC0000038C0000036C0000034C0000080
S11300A032C0000030C000002EC000002CC0000090
S11300B02AC0000028C0000026C0000024C00000A0
S11300C022C0000020C000001EC0000011241FBE7A
S11300D0CFEFD1E2DEBFCDBF12E0A0E0B2E0E4E8B2
S11300E0FEE000E00BBF02C007900D92A431B107FF
S11300F0D9F722E0A4E1B2E001C01D92AB39B20706
S1130100E1F724D1BDC67CCFACE7B0E08FE18C939E
S11301108C918F7380648C938CEF80937E00E4E6E3
S1130120F0E080818E7F808383B7817F826083BF8C
S1130130EAE7F0E080818068808380818860808342
S11301408C91807E88608C9380818064808383B767
S1130150816083BF889583B78E7F83BF8091780049
S1130160909179000895EF92FF921F93CF93DF93BC
S1130170ECE7F0E09081907E892B808380818F73FF
S113018080648083EAE7F0E080818064808383B7C1
S1130190816083BF889583B78E7F83BF8091780009
S11301A09091790010E180E090E0DC0128E730E0F4
S11301B0CCE7D0E00F2EFAE7EF2EF12CF02DF90169
S11301C01182108248814F7340644883F701408153
S11301D04064408343B7416043BF889543B74E7F33
S11301E043BFF90140815181840F951FA11DB11DA9
S11301F0115029F7929582958F7089279F708927CE
S1130200FB0191838083EAE7F0E080818F7780832C
S11302108081877F8083E4E6F0E080818160808351
S113022010927E0083B7817F83BFDF91CF911F91AE
S1130230FF90EF9008958FEF80937E0080937F006E
S113024080937D0008951F920F920FB60F92112490
S11302500F900FBE0F901F90189519D0E4E6F0E0B0
S113026080818F6E8083E5E6F0E080818F638083F8
S1130270E2DF83B7817F846083BF0BC0089544CFDE
S11302800895BC0181E06FCF089578940895F8949F
S11302900895E8E6F0E0808181608083EBE6F0E099
S11302A08081816080830895E8E6F0E080818E7F1C
S11302B08083EBE6F0E080818E7F808308951F9237
S11302C00F920FB60F9211240BB60F922F933F93F8
S11302D04F935F936F937F938F939F93AF93BF934A
S11302E0EF93FF93F894E0DF189917C083B7817FE9
S11302F083BF7894A6D0E5E6F0E080818E7F80838A
S1130300C8D187EE93E00197F1F700C000002AD02E
S1130310E5E6F0E0808181608083BBDF83B7817F85
S1130320846083BF7894FF91EF91BF91AF919F91C7
S11303308F917F916F915F914F913F912F910F908A
S11303400BBE0F900FBE0F901F90189586DFA1D1A2
S113035073D09BDF83B7816083BF889583B78E7F1B
S113036083BFF8CFCF92EF92FF920F93CF93DF9397
S1130370CDB7DEB7C25ED1090FB6F894DEBF0FBEAB
S1130380CDBFCE0101963BD1CE0182589F4F5ED2A4
S113039061E070E0CE0182589F4F64D269E072E060
S11303A0CE0182589F4F84D26091990270919A0233
S11303B0CE0182589F4F66D2609197027091980245
S11303C0CE0182589F4F5ED2609191027091920249
S11303D0CE0182589F4F56D260919302709194023D
S11303E0CE0182589F4F4ED2CE51DF4FC880C25E9D
S11303F0D040CE0182589F4F7C0100E020E04BE0CA
S113040052E066E08D579109EDD1CE01019684D179
S1130410CE51DF4F0FB6F894DEBF0FBECDBFDF91D4
S1130420CF910F91FF90EF90CF9008956DCE0895E6
S1130430BC0180E098CE0895C7D0089AF7DF1FCF9B
S11304400895109A89E992E01CDF87E992E0F0DFD1
S1130450109881E992E0BDC0089528E030E090E86A
S1130460492F482311F0129A01C0129846E04A9588
S1130470F1F700C0149A46E04A95F1F700C01498C9
S113048046E04A95F1F700C09695215031092115AF
S1130490310531F7129A86E08A95F1F700C0149A73
S11304A046E04A95F1F700C00A9880B1149882FB9F
S11304B0882780F90895482F0A98129A28E030E096
S11304C080E090E856E05A95F1F700C0149A02993A
S11304D0892B56E05A95F1F700C01498969521504F
S11304E031092115310571F7442311F00A9A129844
S11304F096E09A95F1F700C0149A56E05A95F1F7F0
S113050000C0149896E09A95F1F700C00895DF9220
S1130510EF92FF920F931F93CF93DF93EC017B0134
S11305200A9A129A129A149886E08A95F1F700C0F2
S1130530149A96E09A95F1F700C01298E6E0EA95CD
S1130540F1F700C01498F6E0FA95F1F700C0149A98
S113055086E08A95F1F700C0129A96E09A95F1F731
S113056000C01498433019F0453029F008C083E0E6
S113057074DFD82E05C085E070DFD82E01C0D12CE1
S1130580E7EEF3E03197F1F700C000000A98029912
S1130590FECF81E090DF082F10E0102F0027198391
S11305A0088381E088DF080F111D1983088380E028
S11305B082DFF70180838D2DDF91CF911F910F9101
S11305C0FF90EF90DF9008950C9A0A9A129A14986B
S11305D008951F93CF93DF93EC01BC016C5F7F4FB1
S11305E043E095DF182FBE016B5F7F4F45E0CE01DE
S11305F002968DDF810FDF91CF911F910895FC0149
S1130600E758FF4F9183808332971082319610828E
S113061033971182108236961082FC01119284E67F
S1130620DF011D928A95E9F708950F93CF93DF9325
S1130630EC01FA0180818A8381818B83DE01149627
S11306409FEF900F002331F0E22FF32F21912D9390
S11306509150E0F788E088836983CB58DF4F802F7F
S113066090E0049699838883DF91CF910F91089548
S1130670FC01DA018C91828311968C91838388E04A
S113068080836183EB58FF4F84E090E09183808303
S1130690089589E196D00EC0089584E192E0AFDF19
S11306A040E052E061E084E192E0E2DF84E192E044
S11306B033C008950F93CF93DF9300D0CDB7DEB747
S11306C0ECDF81E089831A8284E192E098DF01E023
S11306D09E012F5F3F4F46E052E061E084E192E0EB
S11306E0A4DF84E192E018D088E089831A8284E14F
S11306F092E085DF9E012F5F3F4F43E052E061E0CF
S113070084E192E092DF84E192E006D00F900F90B2
S1130710DF91CF910F910895AF92BF92CF92DF9264
S1130720EF92FF920F931F93CF93DF936C018EE7A9
S113073051D0E601CB58DF4F89814CD088814AD013
S1130740F601E958FF4F1082888199819C0121505C
S1130750310939832883892BB9F0E6017F018601A9
S11307600B581F4F5E01899135D0F5019081F70137
S11307708081890F8083F80120813181C90101972B
S113078091838083232B71F7F601E958FF4F808111
S1130790809520D0DF91CF911F910F91FF90EF9022
S11307A0DF90CF90BF90AF900895E9ECF0E08081A6
S11307B0806180830895E9ECF0E080818068808323
S11307C008951092C8001092CD008093CC00EDDF04
S11307D0F2CF0895E8ECF0E0908195FFFDCF80938F
S11307E0CE000895CF92EF92FF920F93CF93DF93B1
S11307F0EC01FA01DC011296485F5F4F91919D93E1
S1130800E417F507D9F7DE011E969FEF9C0DCC2067
S113081031F0EE2DFF2D31913D939150E0F78FEFA4
S11308208A878EEF8B872C870D8780E18883698385
S1130830CB58DF4F8C2D90E00E9699838883DF91FF
S1130840CF910F91FF90EF90CF900895FC01EC5958
S1130850FF4F108222E6FC01E20FF11D10822150AD
S1130860D0F70895FC01EC59FF4F2081233648F45A
S1130870FC01E20FF11D6083FC01EC59FF4F2F5F77
S113088020830895FC01EC59FF4F2081223678F42F
S1130890FC01E20FF11D7083FC01EC59FF4F32E0C3
S11308A0320F30832F5FFC01E20FF11D6083089546
S11308B00F931F93CF93DF93062F172F7F936F937D
S11308C0EC01CC59DF4F2881820F911D9F938F93A8
S11308D015D0E02FF12FDF010D900020E9F71197DB
S11308E0AE1BBF0B8881A80FA8830F900F900F90A9
S11308F00F90DF91CF911F910F9108950F931F9344
S1130900CF93DF93CDB7DEB72E970FB6F894DEBF43
S11309100FBECDBF0D891E8986E08C831A8309839F
S11309208FEF9FE79E838D83AE01475E5F4F6F8994
S1130930788DCE01019610D0EF81F885E00FF11F7C
S113094010822E960FB6F894DEBF0FBECDBFDF9196
S1130950CF911F910F9108952F923F924F925F92E2
S11309606F927F928F929F92AF92BF92CF92DF92BB
S1130970EF92FF920F931F93CF93DF93CDB7DEB720
S11309802C970FB6F894DEBF0FBECDBF7C016B0170
S11309908A01FC0117821682838181FFB0C1CE01D6
S11309A001964C01F7019381F60193FD859193FF24
S11309B081916F01882309F49EC1853239F493FD36
S11309C0859193FF81916F01853221F4B70190E005
S11309D0C7D1E8CF512C312C20E02032A0F48B3247
S11309E069F030F4803259F0833269F420612CC00C
S11309F08D3239F0803339F4216026C022602460BE
S1130A0023C0286021C027FD27C030ED380F3A30BD
S1130A1078F426FF06C0FAE05F9E300D1124532EB1
S1130A2013C08AE0389E300D1124332E20620CC08E
S1130A308E3221F426FD5FC1206406C08C3611F489
S1130A40206802C0883641F4F60193FD859193FF36
S1130A5081916F018111C1CF982F9F7D955493305F
S1130A6028F40C5F1F4FFFE3F9830DC0833631F088
S1130A70833771F0833509F057C021C0F8018081B4
S1130A8089830E5F1F4F44244394512C540114C096
S1130A903801F2E06F0E711CF801A080B18026FFCE
S1130AA003C0652D70E002C06FEF7FEFC5012C8796
S1130AB04CD12C0183012C852F77222E16C03801AE
S1130AC0F2E06F0E711CF801A080B18026FF03C014
S1130AD0652D70E002C06FEF7FEFC5012C872AD12E
S1130AE02C012C852068222E830123FC19C0832D20
S1130AF090E048165906A0F4B70180E290E030D1A6
S1130B003A94F5CFF50127FC859127FE81915F0189
S1130B10B70190E025D131103A94F1E04F1A510811
S1130B204114510479F7DEC0843611F0893631F569
S1130B30F80127FF07C060817181828193810C5F76
S1130B401F4F08C060817181882777FD8095982F99
S1130B500E5F1F4F2F76B22E97FF09C09095809598
S1130B60709561957F4F8F4F9F4F2068B22E2AE07A
S1130B7030E0A40127D1A82EA81843C0853729F452
S1130B802F7EB22E2AE030E025C0F22FF97FBF2E4F
S1130B908F36C1F018F4883579F0ADC0803719F07C
S1130BA0883721F0A8C02F2F2061B22EB4FE0DC0CB
S1130BB08B2D8460B82E09C024FF0AC09F2F966035
S1130BC0B92E06C028E030E005C020E130E002C0C4
S1130BD020E132E0F801B7FE07C0608171818281B3
S1130BE093810C5F1F4F06C06081718180E090E0AB
S1130BF00E5F1F4FA401E6D0A82EA818FB2DFF7787
S1130C00BF2EB6FE0BC02B2D2E7FA51450F4B4FEC0
S1130C100AC0B2FC08C02B2D2E7E05C07A2C2B2DC9
S1130C2003C07A2C01C0752C24FF0DC0FE01EA0D0F
S1130C30F11D8081803311F4297E09C022FF06C092
S1130C407394739404C0822F867809F0739423FDFF
S1130C5012C020FF06C05A2C731418F4530C5718F2
S1130C60732C731460F4B70180E290E02C8778D081
S1130C7073942C85F6CF731410F4371801C0312CFB
S1130C8024FF11C0B70180E390E02C8769D02C8544
S1130C9022FF16C021FF03C088E590E002C088E768
S1130CA090E0B7010CC0822F867851F021FD02C07C
S1130CB080E201C08BE227FD8DE2B70190E050D0C5
S1130CC0A51430F4B70180E390E04AD05A94F8CFE9
S1130CD0AA94F401EA0DF11D8081B70190E040D09F
S1130CE0A110F6CF332009F45DCEB70180E290E085
S1130CF037D03A94F7CFF7018681978102C08FEFFE
S1130D009FEF2C960FB6F894DEBF0FBECDBFDF91D8
S1130D10CF911F910F91FF90EF90DF90CF90BF90F4
S1130D20AF909F908F907F906F905F904F903F9087
S1130D302F900895FC010590615070400110D8F780
S1130D40809590958E0F9F1F0895FC01615070400F
S1130D5001900110D8F7809590958E0F9F1F0895EC
S1130D600F931F93CF93DF93182F092FEB018B81E0
S1130D7081FD03C08FEF9FEF20C082FF10C04E8122
S1130D805F812C813D81421753077CF4E881F9810E
S1130D909F012F5F3F4F39832883108306C0E88566
S1130DA0F985812F0995892B29F72E813F812F5FA2
S1130DB03F4F3F832E83812F902FDF91CF911F913F
S1130DC00F910895FA01AA27283051F1203181F1B9
S1130DD0E8946F936E7F6E5F7F4F8F4F9F4FAF4F3F
S1130DE0B1E03ED0B4E03CD0670F781F891F9A1F52
S1130DF0A11D680F791F8A1F911DA11D6A0F711D06
S1130E00811D911DA11D20D009F468943F912AE011
S1130E10269F11243019305D3193DEF6CF010895F9
S1130E20462F4770405D4193B3E00FD0C9F7F6CF2A
S1130E30462F4F70405D4A3318F0495D31FD4052F2
S1130E40419302D0A9F7EACFB4E0A6959795879588
S1130E5077956795BA95C9F7009761057105089567
S1130E609B01AC010A2E0694579547953795279513
S1130E70BA95C9F7620F731F841F951FA01D0895AB
S1070E80F894FFCF10
S1130E84465200534D00434200484E0013A2004012
S1070E94BB3DD3008B
S9030000FC
