:1000000065C0000081C000007FC000007DC000000E
:100010007BC0000079C0000077C0000075C0000000
:1000200073C000002CC100006FC000006DC0000054
:100030006BC0000069C0000067C0000065C0000020
:1000400063C0000061C000005FC000005DC0000030
:100050005BC0000059C0000057C0000055C0000040
:1000600053C0000051C000004FC000004DC0000050
:100070004BC00000CBC0000047C0000045C00000DE
:1000800043C0000041C000003FC000003DC0000070
:100090003BC0000039C0000037C0000035C0000080
:1000A00033C0000031C000002FC000002DC0000090
:1000B0002BC0000029C0000027C0000025C00000A0
:1000C00023C0000021C000001FC0000011241FBE7B
:1000D000CFEFD1E2DEBFCDBF12E0A0E0B2E0E6E3B9
:1000E000F2E100E00BBF02C007900D92A631B1070C
:1000F000D9F722E0A6E1B2E001C01D92A93BB20708
:10010000E1F7F3D00C9419097BCFE4E6F0E08081AD
:100110008E7F80838CEF80937E00EAE7F0E0808121
:100120008068808383E88083ACE7B0E088E48C93C8
:100130008C91807E88608C938081806480838081B4
:1001400084FFFDCF80917800909179000895CF933E
:10015000DF93E4E6F0E090819E7F90839CEF9093A4
:100160007E00EAE7F0E090819068908393B7917FFA
:10017000926093BF93E89083ECE7F0E098E490837B
:1001800090819F73906490839081907E892B80836F
:1001900040E180E090E0DC01C8E7D0E0EAE7F0E091
:1001A00019821882208120642083208124FFFDCFC2
:1001B00028813981820F931FA11DB11D415081F704
:1001C000929582958F7089279F708927FB01918373
:1001D0008083EAE7F0E08081877F808310927E0051
:1001E00080818F778083E4E6F0E080818160808386
:1001F00083B7817F83BFDF91CF9108958FEF809385
:100200007E0080937F0080937D0008951F920F925F
:100210000FB60F9211240F900FBE0F901F901895DC
:10022000E4E6F0E080818F6E8083E5E6F0E0808197
:100230008F638083E3DF83B7817F846083BF08950A
:10024000BC0181E084CF089578940895F8940895CE
:10025000E8E6F0E0808181608083EBE6F0E0808179
:100260008160808308959CB321E030E002C0220FBA
:10027000331F8A95E2F7209592239CBB08951F9225
:100280000F920FB60F9211240BB60F922F933F933C
:100290004F935F936F937F938F939F93AF93BF938E
:1002A000EF93FF93F894CBD1882331F0789483B700
:1002B000817F83BF62D2CAD183B7817F846083BFCD
:1002C0007894C1D1FF91EF91BF91AF919F918F91A0
:1002D0007F916F915F914F913F912F910F900BBE46
:1002E0000F900FBE0F901F901895B0DF99DF8CD341
:1002F0003ED2AADFFFCFF894882311F0169A01C0EE
:10030000169878940895F894059B03C0789481E03A
:100310000895789480E008951F93CF93DF9380E051
:10032000EADF10E1C0E0D0E081E0E5DF80E0E3DF7C
:10033000CC0FDD1FE8DF8111C1601150A9F7CE019C
:10034000DF91CF911F9108950F931F93CF93DF9368
:10035000DADF91E0811101C090E0CFE1DEE411E04D
:1003600000E008C0D0DF912F811101C0902F2197AC
:10037000209721F09111F6CF80E001C081E0DF915C
:10038000CF911F910F9108951F93CF93DF93C82FA3
:10039000162F80E0B0DF112391F0D0E0C0FF04C041
:1003A000F894139A789403C0F8941398789481E0A1
:1003B000A2DF80E0A0DFC695DF5FD113EFCFDF9132
:1003C000CF911F9108950F931F93823011F128F45C
:1003D000882351F0813061F049C0843081F120F1EF
:1003E000853009F43FC042C0CB019695879540C047
:1003F000C90100249695879507949695879507944B
:10040000982F802D807C9F700F731127802B912B4C
:100410002FC0C8010024880F991F001C880F991F46
:10042000001C892F902D24C0C9010024880F991F1A
:10043000001C880F991F001C892F902D19C0CB011B
:10044000982F8827990F990F882794700024440FBC
:10045000551F001C440F551F001C452F502D842B89
:10046000952B06C0CA018F73992702C080E090E0E7
:100470001F910F9108957F928F929F92AF92BF929A
:10048000CF92DF92EF92FF920F931F93CF93DF9360
:100490000B9A0E9A0D981092160268E085E574DFAB
:1004A00068E085E571DF65E080E06EDF11E001C0A6
:1004B0001F5F8FEF810FC82FD0E0813079F028F0D7
:1004C0008230A9F08330E1F02DC068E087E55CDF81
:1004D00065E081E059DF20DF7C0150C068E087EDF6
:1004E00053DF65E080E050DF17DF7C0147C068E044
:1004F00087E34ADF65E081E047DF0EDF7C013EC035
:1005000068E087EB41DF65E080E03EDF05DF7C01EE
:1005100061E080E039DFCC0FDD1FCC56DD4FF98282
:10052000E8820CC061E080E02FDFCC0FDD1FCC56ED
:10053000DD4F19821882143008F4BACF80909A02E5
:1005400090909B02A0909802B0909902C090960261
:10055000D0909702E0909402F0909502C0EAD2E029
:10056000712C84019501A601B701872D2CDF899399
:100570009993739486E07812F4CF0AC061E080E02A
:1005800003DFCC0FDD1FCC56DD4FF982E88290CF20
:10059000DF91CF911F910F91FF90EF90DF90CF905F
:1005A000BF90AF909F908F907F900895CF93DF93EF
:1005B000EC01C4D160DF68E08FE2E6DE62E080E05B
:1005C000E3DEA1DE811103C081E08093160262E0C8
:1005D00080E0DADE80911602811109C0B5DE91E07B
:1005E000811101C090E09093160296DE02C080E077
:1005F00090E09983888368E08FE4C6DE63E080E062
:10060000C3DE81DE811103C081E08093160261E0C8
:1006100080E0BADE80911602811109C095DE91E07A
:10062000811101C090E09093160276DE02C080E056
:1006300090E09B838A8392D1DF91CF91089583B11B
:1006400080958170089580E00ECE0895CF92EF924C
:10065000FF920F931F93CF93DF93CDB7DEB7C25EA8
:10066000D1090FB6F894DEBF0FBECDBFCE01019603
:1006700081D1CE0182589F4FC2D260E0CE01825814
:100680009F4FC9D264E0CE0182589F4FC4D269E027
:1006900072E0CE0182589F4FE4D26091B202709115
:1006A000B302CE0182589F4FC6D26091B4027091BE
:1006B000B502CE0182589F4FBED26091AC027091BC
:1006C000AD02CE0182589F4FB6D26091AE027091BA
:1006D000AF02CE0182589F4FAED200EA12E00F2E39
:1006E000F8EBEF2EF2E0FF2EF02DF8016191719101
:1006F0008F01CE0182589F4F9ED20E151F05A9F77C
:1007000060919C0270919D02CE0182589F4F93D2BE
:1007100060919E0270919F02CE0182589F4F8BD2B2
:10072000CE51DF4FC880C25ED040CE0182589F4F6D
:100730007C0100E020E04DE052E066E08D57910939
:100740002AD2CE010196BFD1CE51DF4F0FB6F89419
:10075000DEBF0FBECDBFDF91CF911F910F91FF90F4
:10076000EF90CF900895BC0180E0F1CC08956D9A90
:100770007598CBDCC8D07FCE0895759A82EB92E055
:10078000F2DF84EB92E05CDD75988CEA92E0C0D0F9
:100790008CE992E00BCF089528E030E090E8492FF3
:1007A000482311F0129A01C0129846E04A95F1F7D9
:1007B00000C0149A46E04A95F1F700C0149846E04C
:1007C0004A95F1F700C09695215031092115310560
:1007D00031F7129A86E08A95F1F700C0149A46E044
:1007E0004A95F1F700C00A9880B1149882FB8827D7
:1007F00080F90895482F0A98129A28E030E080E0A6
:1008000090E856E05A95F1F700C0149A0299892BA6
:1008100056E05A95F1F700C0149896952150310989
:100820002115310571F7442311F00A9A129896E0C8
:100830009A95F1F700C0149A56E05A95F1F700C066
:10084000149896E09A95F1F700C00895DF92EF9220
:10085000FF920F931F93CF93DF93EC017B010A9AD2
:10086000129A129A149886E08A95F1F700C0149AA9
:1008700096E09A95F1F700C01298E6E0EA95F1F754
:1008800000C01498F6E0FA95F1F700C0149A86E0DB
:100890008A95F1F700C0129A96E09A95F1F700C098
:1008A0001498433019F0453029F008C083E074DF14
:1008B000D82E05C085E070DFD82E01C0D12CE7EE20
:1008C000F3E03197F1F700C000000A980299FECFDB
:1008D00081E090DF082F10E0102F00271983088394
:1008E00081E088DF080F111D1983088380E082DF13
:1008F000F70180838D2DDF91CF911F910F91FF9094
:10090000EF90DF9008950C9A0A9A129A149808951D
:100910001F93CF93DF93EC01BC016C5F7F4F43E0EB
:1009200095DF182FBE016B5F7F4F45E0CE01029629
:100930008DDF810FDF91CF911F910895E4E6F0E004
:1009400080818F7D808316BC279A8CE387BD84B518
:10095000826484BD85B5816085BD089585B58E7F2F
:1009600085BD84B58D7B84BDE4E6F0E08081806246
:1009700080830895FC01E758FF4F9183808332976D
:10098000108231961082339711821082369610822F
:10099000FC01119284E6DF011D928A95E9F7089522
:1009A0000F93CF93DF93EC01FA0180818A838181D9
:1009B0008B83DE0114969FEF900F002331F0E22F1E
:1009C000F32F21912D939150E0F788E0888369837C
:1009D000CB58DF4F802F90E0049699838883DF9176
:1009E000CF910F910895FC01DA018C9182831196C9
:1009F0008C91838388E080836183EB58FF4F84E090
:100A000090E0918380830895E5E6F0E080818E7F19
:100A1000808389E1A2D013D02098289819DC80E047
:100A200022CC089587E192E0A5DF40E052E061E04A
:100A300087E192E0D8DF87E192E045C008950F9307
:100A4000CF93DF9300D0CDB7DEB7ECDF8FE59AEE22
:100A50000197F1F700C0000081E089831A8287E1E5
:100A600092E088DF01E09E012F5F3F4F46E052E0B9
:100A700061E087E192E094DF87E192E024D087E9AA
:100A80009AE30197F1F700C0000088E089831A8299
:100A900087E192E06FDF9E012F5F3F4F43E052E01E
:100AA00061E087E192E07CDF87E192E00CD087E9AA
:100AB0009AE30197F1F700C000000F900F90DF91CB
:100AC000CF910F910895AF92BF92CF92DF92EF92A4
:100AD000FF920F931F93CF93DF936C018EE74ED05D
:100AE000E601CB58DF4F898149D0888147D0F60194
:100AF000E958FF4F1082888199819C01215031096A
:100B000039832883892BB9F0E6017F0186010B58D0
:100B10001F4F5E01899132D0F5019081F7018081EC
:100B2000890F8083F80120813181C9010197918368
:100B30008083232B71F7F601E958FF4F8081809560
:100B40001DD081E0DF91CF911F910F91FF90EF9029
:100B5000DF90CF90BF90AF9008955298539A109223
:100B6000C8001092CD008093CC00E9ECF0E08081C9
:100B7000886080838081806180830895E8ECF0E064
:100B8000908195FFFDCF8093CE00E8ECF0E080816E
:100B900086FFFDCF0895CF92EF92FF920F93CF93F0
:100BA000DF93EC01FA01DC011296485F5F4F9191EF
:100BB0009D93E417F507D9F7DE011E969FEF9C0D74
:100BC000CC2031F0EE2DFF2D31913D939150E0F787
:100BD0008FEF8A878EEF8B872C870D8780E1888344
:100BE0006983CB58DF4F8C2D90E00E9699838883D4
:100BF000DF91CF910F91FF90EF90CF900895FC017E
:100C0000EC59FF4F108222E6FC01E20FF11D108229
:100C10002150D0F70895FC01EC59FF4F2081233675
:100C200048F4FC01E20FF11D6083FC01EC59FF4F19
:100C30002F5F20830895FC01EC59FF4F208122365D
:100C400078F4FC01E20FF11D7083FC01EC59FF4FB9
:100C500032E0320F30832F5FFC01E20FF11D608321
:100C600008950F931F93CF93DF93062F172F7F9332
:100C70006F93EC01CC59DF4F2881820F911D9F9318
:100C80008F9315D0E02FF12FDF010D900020E9F7B1
:100C90001197AE1BBF0B8881A80FA8830F900F90F0
:100CA0000F900F90DF91CF911F910F9108950F93A7
:100CB0001F93CF93DF93CDB7DEB72E970FB6F8947F
:100CC000DEBF0FBECDBF0D891E8986E08C831A83DF
:100CD00009838FEF9FE79E838D83AE01475E5F4F51
:100CE0006F89788DCE01019610D0EF81F885E00FE5
:100CF000F11F10822E960FB6F894DEBF0FBECDBF47
:100D0000DF91CF911F910F9108952F923F924F92B3
:100D10005F926F927F928F929F92AF92BF92CF928B
:100D2000DF92EF92FF920F931F93CF93DF93CDB794
:100D3000DEB72C970FB6F894DEBF0FBECDBF7C0197
:100D40006B018A01FC0117821682838181FFB0C189
:100D5000CE0101964C01F7019381F60193FD859137
:100D600093FF81916F01882309F49EC1853239F484
:100D700093FD859193FF81916F01853221F4B70135
:100D800090E0C7D1E8CF512C312C20E02032A0F4E4
:100D90008B3269F030F4803259F0833269F420618B
:100DA0002CC08D3239F0803339F4216026C02260A6
:100DB000246023C0286021C027FD27C030ED380FF4
:100DC0003A3078F426FF06C0FAE05F9E300D112419
:100DD000532E13C08AE0389E300D1124332E20622A
:100DE0000CC08E3221F426FD5FC1206406C08C3613
:100DF00011F4206802C0883641F4F60193FD859114
:100E000093FF81916F018111C1CF982F9F7D9554E0
:100E1000933028F40C5F1F4FFFE3F9830DC0833636
:100E200031F0833771F0833509F057C021C0F801E4
:100E3000808189830E5F1F4F44244394512C5401B9
:100E400014C03801F2E06F0E711CF801A080B1806F
:100E500026FF03C0652D70E002C06FEF7FEFC50174
:100E60002C874CD12C0183012C852F77222E16C084
:100E70003801F2E06F0E711CF801A080B18026FFEE
:100E800003C0652D70E002C06FEF7FEFC5012C87B6
:100E90002AD12C012C852068222E830123FC19C025
:100EA000832D90E048165906A0F4B70180E290E047
:100EB00030D13A94F5CFF50127FC859127FE819139
:100EC0005F01B70190E025D131103A94F1E04F1A5B
:100ED00051084114510479F7DEC0843611F0893687
:100EE00031F5F80127FF07C060817181828193810C
:100EF0000C5F1F4F08C060817181882777FD809546
:100F0000982F0E5F1F4F2F76B22E97FF09C0909536
:100F10008095709561957F4F8F4F9F4F2068B22EBF
:100F20002AE030E0A40127D1A82EA81843C08537B5
:100F300029F42F7EB22E2AE030E025C0F22FF97F6F
:100F4000BF2E8F36C1F018F4883579F0ADC08037E8
:100F500019F0883721F0A8C02F2F2061B22EB4FEDF
:100F60000DC08B2D8460B82E09C024FF0AC09F2FAE
:100F70009660B92E06C028E030E005C020E130E0E0
:100F800002C020E132E0F801B7FE07C06081718144
:100F9000828193810C5F1F4F06C06081718180E068
:100FA00090E00E5F1F4FA401E6D0A82EA818FB2DDD
:100FB000FF77BF2EB6FE0BC02B2D2E7FA51450F44D
:100FC000B4FE0AC0B2FC08C02B2D2E7E05C07A2CC0
:100FD0002B2D03C07A2C01C0752C24FF0DC0FE01FF
:100FE000EA0DF11D8081803311F4297E09C022FFB2
:100FF00006C07394739404C0822F867809F07394AA
:1010000023FD12C020FF06C05A2C731418F4530C91
:101010005718732C731460F4B70180E290E02C87AA
:1010200078D073942C85F6CF731410F4371801C060
:10103000312C24FF11C0B70180E390E02C8769D0E8
:101040002C8522FF16C021FF03C088E590E002C076
:1010500088E790E0B7010CC0822F867851F021FD1F
:1010600002C080E201C08BE227FD8DE2B70190E073
:1010700050D0A51430F4B70180E390E04AD05A94E0
:10108000F8CFAA94F401EA0DF11D8081B70190E038
:1010900040D0A110F6CF332009F45DCEB70180E235
:1010A00090E037D03A94F7CFF7018681978102C05C
:1010B0008FEF9FEF2C960FB6F894DEBF0FBECDBF1B
:1010C000DF91CF911F910F91FF90EF90DF90CF9024
:1010D000BF90AF909F908F907F906F905F904F9058
:1010E0003F902F900895FC010590615070400110D1
:1010F000D8F7809590958E0F9F1F0895FC01615041
:10110000704001900110D8F7809590958E0F9F1F29
:1011100008950F931F93CF93DF93182F092FEB019F
:101120008B8181FD03C08FEF9FEF20C082FF10C035
:101130004E815F812C813D81421753077CF4E88109
:10114000F9819F012F5F3F4F39832883108306C0A9
:10115000E885F985812F0995892B29F72E813F8113
:101160002F5F3F4F3F832E83812F902FDF91CF91B1
:101170001F910F910895FA01AA27283051F12031CB
:1011800081F1E8946F936E7F6E5F7F4F8F4F9F4F1B
:10119000AF4FB1E03ED0B4E03CD0670F781F891F5D
:1011A0009A1FA11D680F791F8A1F911DA11D6A0F2B
:1011B000711D811D911DA11D20D009F468943F91DE
:1011C0002AE0269F11243019305D3193DEF6CF01DD
:1011D0000895462F4770405D4193B3E00FD0C9F7A3
:1011E000F6CF462F4F70405D4A3318F0495D31FD10
:1011F0004052419302D0A9F7EACFB4E0A695979563
:10120000879577956795BA95C9F700976105710538
:1012100008959B01AC010A2E069457954795379582
:101220002795BA95C9F7620F731F841F951FA01DDC
:061230000895F894FFCFC1
:10123600465200534D004342004E48534D0013A200
:06124600004048949400F2
:00000001FF
