:1000000065C0000080C000007EC000007CC0000011
:100010007AC0000078C0000076C0000074C0000004
:1000200072C0000083C100006EC000006CC0000000
:100030006AC0000068C0000066C0000064C0000024
:1000400062C0000060C000005EC000005CC0000034
:100050005AC0000058C0000056C0000054C0000044
:1000600052C0000050C000004EC000004CC0000054
:100070004AC0000017C1000046C0000044C0000094
:1000800042C0000040C000003EC000003CC0000074
:100090003AC0000038C0000036C0000034C0000084
:1000A00032C0000030C000002EC000002CC0000094
:1000B0002AC0000028C0000026C0000024C00000A4
:1000C00022C0000020C000001EC0000011241FBE7E
:1000D000CFEFD1E2DEBFCDBF12E0A0E0B2E0E6E8B4
:1000E000FDE000E00BBF02C007900D92A431B10704
:1000F000D9F722E0A4E1B2E001C01D92AE39B20707
:10010000E1F75CD13EC67CCFE4E6F0E080818E7FF3
:1001100080838CEF80937E00EAE7F0E08081806846
:10012000808383E8808388E480937C00808180647E
:100130008083808184FFFDCF809178009091790049
:1001400010927E00EAE7F0E080818F778083E4E61A
:10015000F0E08081816080830895EAE7F0E08081AB
:100160008F7E808308957F928F929F92AF92BF92ED
:10017000CF92DF92EF92FF920F931F93CF93DF9373
:10018000182F6B01E4E6F0E080818E7F80838CEF96
:1001900080937E00CAE7D0E088818068888383B737
:1001A000817F826083BF888188608883D6DFECE7A7
:1001B000F0E08081807E8860808380818F7380649E
:1001C000808388818064888383B7816083BF8895BA
:1001D00083B78E7F83BF2091780030917900BDDF97
:1001E000ECE7F0E08081807E182B10836894772400
:1001F00074F8812C912C54010F2EF8E7EF2EF12C7E
:10020000F02D0CE710E0F70111821082F8018081D7
:100210008F738064808388818064888383B78160E2
:1002200083BF889583B78E7F83BFF70180819181DB
:10023000880E991EA11CB11C90DF7A9421F7969428
:100240008794969487949694879496948794F601CD
:1002500091828082EAE7F0E08081877F808310923C
:100260007E0080818F778083E4E6F0E0808181608A
:10027000808383B7817F83BFDF91CF911F910F91DF
:10028000FF90EF90DF90CF90BF90AF909F908F90B6
:100290007F9008958FEF80937E0080937F008093FE
:1002A0007D0008951F920F920FB60F9211240F90A8
:1002B0000FBE0F901F901895E4E6F0E080818F6EDE
:1002C0008083E5E6F0E080818F638083E3DF83B79E
:1002D000817F846083BF0895BC0181E044CF08958D
:1002E00078940895F8940895E8E6F0E080818160BC
:1002F0008083EBE6F0E08081816080830895E8E60A
:10030000F0E080818E7F8083EBE6F0E080818E7F5D
:10031000808308959CB321E030E002C0220F331F98
:100320008A95E2F7209592239CBB08951F920F9225
:100330000FB60F9211240BB60F922F933F934F934A
:100340005F936F937F938F939F93AF93BF93EF933D
:10035000FF93D5DF40D08823B9F043D0789483B79A
:10036000817F83BFA0D0E5E6F0E080818E7F80832F
:1003700087EE93E00197F1F700C0000035D0E5E685
:10038000F0E080818160808383B7817F846083BF58
:1003900028D0AADF7894FF91EF91BF91AF919F9100
:1003A0008F917F916F915F914F913F912F910F901E
:1003B0000BBE0F900FBE0F901F90189593DF7CDF40
:1003C0006FD0C4D08DDF83B7816083BF889583B73A
:1003D0008E7F83BFF8CF189B02C08CB31CBA81E01C
:1003E000089580E097CF0895CF92EF92FF920F93F8
:1003F000CF93DF93CDB7DEB7C25ED1090FB6F894C5
:10040000DEBF0FBECDBFCE01019656D0CE018258C1
:100410009F4F9DD161E0CE0182589F4FA4D162E0F1
:10042000CE0182589F4F9FD169E072E0CE01825881
:100430009F4FBFD16091990270919A02CE0182586C
:100440009F4FA1D16091970270919802CE0182587E
:100450009F4F99D1CE51DF4FC880C25ED040CE01B0
:1004600082589F4F7C0100E020E04BE052E066E0C4
:100470008D57910938D1CE010196B5D0CE51DF4FBD
:100480000FB6F894DEBF0FBECDBFDF91CF910F91B5
:10049000FF90EF90CF900895BC0180E064CE089566
:1004A000089A32CE0895109A89E992E015DF87E91B
:1004B00092E0F2DF10980895FC01E758FF4F918316
:1004C0008083329710823196108233971182108286
:1004D00036961082FC01119284E6DF011D928A9506
:1004E000E9F708950F93CF93DF93EC01FA01808130
:1004F0008A8381818B83DE0114969FEF900F002306
:1005000031F0E22FF32F21912D939150E0F788E005
:1005100088836983CB58DF4F802F90E004969983BE
:100520008883DF91CF910F910895FC01DA018C91BE
:10053000828311968C91838388E080836183EB585A
:10054000FF4F84E090E09183808308952098CCDE73
:1005500080E0E0DE0EC0089584E192E0ADDF40E08F
:1005600052E061E084E192E0E0DF84E192E03BC0B0
:1005700008950F93CF93DF9300D0CDB7DEB795D01A
:10058000EBDF8FE493EC0197F1F700C0000081E00E
:1005900089831A8284E192E08FDF01E09E012F5F60
:1005A0003F4F46E052E061E084E192E09BDF84E16E
:1005B00092E019D088E089831A8284E192E07CDF9E
:1005C0009E012F5F3F4F43E052E061E084E192E003
:1005D00089DF84E192E007D078D00F900F90DF910F
:1005E000CF910F910895AF92BF92CF92DF92EF9289
:1005F000FF920F931F93CF93DF936C018EE748D048
:10060000E601CB58DF4F898143D0888141D0F60184
:10061000E958FF4F1082888199819C01215031094E
:1006200039832883892BB9F0E6017F0186010B58B5
:100630001F4F5E0189912CD0F5019081F7018081D7
:10064000890F8083F80120813181C901019791834D
:100650008083232B71F7F601E958FF4F8081809545
:1006600017D080E015D081E0DF91CF911F910F91DD
:10067000FF90EF90DF90CF90BF90AF900895529889
:10068000539A1092C8001092CD008093CC00089528
:10069000E8ECF0E0908195FFFDCF8093CE00E8EC90
:1006A000F0E0808186FFFDCF0895E5E6F0E08081EF
:1006B0008E7F808389E1E3DFE9ECF0E08081886070
:1006C00080838081806180830895E9ECF0E08081FF
:1006D000877F808380818F7E8083E5E6F0E0808164
:1006E000816080830895CF92EF92FF920F93CF9312
:1006F000DF93EC01FA01DC011296485F5F4F9191A4
:100700009D93E417F507D9F7DE011E969FEF9C0D28
:10071000CC2031F0EE2DFF2D31913D939150E0F73B
:100720008FEF8A878EEF8B872C870D8780E18883F8
:100730006983CB58DF4F8C2D90E00E969983888388
:10074000DF91CF910F91FF90EF90CF900895FC0132
:10075000EC59FF4F108222E6FC01E20FF11D1082DE
:100760002150D0F70895FC01EC59FF4F208123362A
:1007700048F4FC01E20FF11D6083FC01EC59FF4FCE
:100780002F5F20830895FC01EC59FF4F2081223612
:1007900078F4FC01E20FF11D7083FC01EC59FF4F6E
:1007A00032E0320F30832F5FFC01E20FF11D6083D6
:1007B00008950F931F93CF93DF93062F172F7F93E7
:1007C0006F93EC01CC59DF4F2881820F911D9F93CD
:1007D0008F9315D0E02FF12FDF010D900020E9F766
:1007E0001197AE1BBF0B8881A80FA8830F900F90A5
:1007F0000F900F90DF91CF911F910F9108950F935C
:100800001F93CF93DF93CDB7DEB72E970FB6F89433
:10081000DEBF0FBECDBF0D891E8986E08C831A8393
:1008200009838FEF9FE79E838D83AE01475E5F4F05
:100830006F89788DCE01019610D0EF81F885E00F99
:10084000F11F10822E960FB6F894DEBF0FBECDBFFB
:10085000DF91CF911F910F9108952F923F924F9268
:100860005F926F927F928F929F92AF92BF92CF9240
:10087000DF92EF92FF920F931F93CF93DF93CDB749
:10088000DEB72C970FB6F894DEBF0FBECDBF7C014C
:100890006B018A01FC0117821682838181FFB0C13E
:1008A000CE0101964C01F7019381F60193FD8591EC
:1008B00093FF81916F01882309F49EC1853239F439
:1008C00093FD859193FF81916F01853221F4B701EA
:1008D00090E0C7D1E8CF512C312C20E02032A0F499
:1008E0008B3269F030F4803259F0833269F4206140
:1008F0002CC08D3239F0803339F4216026C022605B
:10090000246023C0286021C027FD27C030ED380FA8
:100910003A3078F426FF06C0FAE05F9E300D1124CD
:10092000532E13C08AE0389E300D1124332E2062DE
:100930000CC08E3221F426FD5FC1206406C08C36C7
:1009400011F4206802C0883641F4F60193FD8591C8
:1009500093FF81916F018111C1CF982F9F7D955495
:10096000933028F40C5F1F4FFFE3F9830DC08336EB
:1009700031F0833771F0833509F057C021C0F80199
:10098000808189830E5F1F4F44244394512C54016E
:1009900014C03801F2E06F0E711CF801A080B18024
:1009A00026FF03C0652D70E002C06FEF7FEFC50129
:1009B0002C874CD12C0183012C852F77222E16C039
:1009C0003801F2E06F0E711CF801A080B18026FFA3
:1009D00003C0652D70E002C06FEF7FEFC5012C876B
:1009E0002AD12C012C852068222E830123FC19C0DA
:1009F000832D90E048165906A0F4B70180E290E0FC
:100A000030D13A94F5CFF50127FC859127FE8191ED
:100A10005F01B70190E025D131103A94F1E04F1A0F
:100A200051084114510479F7DEC0843611F089363B
:100A300031F5F80127FF07C06081718182819381C0
:100A40000C5F1F4F08C060817181882777FD8095FA
:100A5000982F0E5F1F4F2F76B22E97FF09C09095EB
:100A60008095709561957F4F8F4F9F4F2068B22E74
:100A70002AE030E0A40127D1A82EA81843C085376A
:100A800029F42F7EB22E2AE030E025C0F22FF97F24
:100A9000BF2E8F36C1F018F4883579F0ADC080379D
:100AA00019F0883721F0A8C02F2F2061B22EB4FE94
:100AB0000DC08B2D8460B82E09C024FF0AC09F2F63
:100AC0009660B92E06C028E030E005C020E130E095
:100AD00002C020E132E0F801B7FE07C060817181F9
:100AE000828193810C5F1F4F06C06081718180E01D
:100AF00090E00E5F1F4FA401E6D0A82EA818FB2D92
:100B0000FF77BF2EB6FE0BC02B2D2E7FA51450F401
:100B1000B4FE0AC0B2FC08C02B2D2E7E05C07A2C74
:100B20002B2D03C07A2C01C0752C24FF0DC0FE01B3
:100B3000EA0DF11D8081803311F4297E09C022FF66
:100B400006C07394739404C0822F867809F073945E
:100B500023FD12C020FF06C05A2C731418F4530C46
:100B60005718732C731460F4B70180E290E02C875F
:100B700078D073942C85F6CF731410F4371801C015
:100B8000312C24FF11C0B70180E390E02C8769D09D
:100B90002C8522FF16C021FF03C088E590E002C02B
:100BA00088E790E0B7010CC0822F867851F021FDD4
:100BB00002C080E201C08BE227FD8DE2B70190E028
:100BC00050D0A51430F4B70180E390E04AD05A9495
:100BD000F8CFAA94F401EA0DF11D8081B70190E0ED
:100BE00040D0A110F6CF332009F45DCEB70180E2EA
:100BF00090E037D03A94F7CFF7018681978102C011
:100C00008FEF9FEF2C960FB6F894DEBF0FBECDBFCF
:100C1000DF91CF911F910F91FF90EF90DF90CF90D8
:100C2000BF90AF909F908F907F906F905F904F900C
:100C30003F902F900895FC01059061507040011085
:100C4000D8F7809590958E0F9F1F0895FC016150F5
:100C5000704001900110D8F7809590958E0F9F1FDE
:100C600008950F931F93CF93DF93182F092FEB0154
:100C70008B8181FD03C08FEF9FEF20C082FF10C0EA
:100C80004E815F812C813D81421753077CF4E881BE
:100C9000F9819F012F5F3F4F39832883108306C05E
:100CA000E885F985812F0995892B29F72E813F81C8
:100CB0002F5F3F4F3F832E83812F902FDF91CF9166
:100CC0001F910F910895FA01AA27283051F1203180
:100CD00081F1E8946F936E7F6E5F7F4F8F4F9F4FD0
:100CE000AF4FB1E03ED0B4E03CD0670F781F891F12
:100CF0009A1FA11D680F791F8A1F911DA11D6A0FE0
:100D0000711D811D911DA11D20D009F468943F9192
:100D10002AE0269F11243019305D3193DEF6CF0191
:100D20000895462F4770405D4193B3E00FD0C9F757
:100D3000F6CF462F4F70405D4A3318F0495D31FDC4
:100D40004052419302D0A9F7EACFB4E0A695979517
:100D5000879577956795BA95C9F7009761057105ED
:100D600008959B01AC010A2E069457954795379537
:100D70002795BA95C9F7620F731F841F951FA01D91
:060D80000895F894FFCF76
:100D8600465200534D00434200484E0013A2004015
:040D960048949400E9
:00000001FF
